{
  "_format": "hh-sol-artifact-1",
  "contractName": "CropInsurance",
  "sourceName": "contracts/CropInsurance.sol",
  "abi": [
    {
      "inputs": [
        {
          "internalType": "address",
          "name": "_backend",
          "type": "address"
        }
      ],
      "stateMutability": "nonpayable",
      "type": "constructor"
    },
    {
      "anonymous": false,
      "inputs": [
        {
          "indexed": true,
          "internalType": "address",
          "name": "farmer",
          "type": "address"
        },
        {
          "indexed": false,
          "internalType": "uint256",
          "name": "amount",
          "type": "uint256"
        },
        {
          "indexed": false,
          "internalType": "string",
          "name": "reason",
          "type": "string"
        },
        {
          "indexed": false,
          "internalType": "string",
          "name": "severity",
          "type": "string"
        }
      ],
      "name": "InsurancePayout",
      "type": "event"
    },
    {
      "anonymous": false,
      "inputs": [
        {
          "indexed": true,
          "internalType": "address",
          "name": "farmer",
          "type": "address"
        },
        {
          "indexed": false,
          "internalType": "uint256",
          "name": "premium",
          "type": "uint256"
        },
        {
          "indexed": false,
          "internalType": "uint256",
          "name": "coverage",
          "type": "uint256"
        },
        {
          "indexed": false,
          "internalType": "uint256",
          "name": "endDate",
          "type": "uint256"
        }
      ],
      "name": "InsurancePurchased",
      "type": "event"
    },
    {
      "anonymous": false,
      "inputs": [
        {
          "indexed": true,
          "internalType": "address",
          "name": "farmer",
          "type": "address"
        },
        {
          "indexed": false,
          "internalType": "uint256",
          "name": "newEndDate",
          "type": "uint256"
        }
      ],
      "name": "InsuranceRenewed",
      "type": "event"
    },
    {
      "anonymous": false,
      "inputs": [
        {
          "indexed": true,
          "internalType": "address",
          "name": "farmer",
          "type": "address"
        },
        {
          "indexed": false,
          "internalType": "uint256",
          "name": "newScore",
          "type": "uint256"
        }
      ],
      "name": "RiskScoreUpdated",
      "type": "event"
    },
    {
      "inputs": [],
      "name": "BASE_PREMIUM_RATE",
      "outputs": [
        {
          "internalType": "uint256",
          "name": "",
          "type": "uint256"
        }
      ],
      "stateMutability": "view",
      "type": "function"
    },
    {
      "inputs": [],
      "name": "HIGH_DROUGHT_PAYOUT_PERCENT",
      "outputs": [
        {
          "internalType": "uint256",
          "name": "",
          "type": "uint256"
        }
      ],
      "stateMutability": "view",
      "type": "function"
    },
    {
      "inputs": [],
      "name": "SEASON_DURATION",
      "outputs": [
        {
          "internalType": "uint256",
          "name": "",
          "type": "uint256"
        }
      ],
      "stateMutability": "view",
      "type": "function"
    },
    {
      "inputs": [],
      "name": "SEVERE_DROUGHT_PAYOUT_PERCENT",
      "outputs": [
        {
          "internalType": "uint256",
          "name": "",
          "type": "uint256"
        }
      ],
      "stateMutability": "view",
      "type": "function"
    },
    {
      "inputs": [],
      "name": "backend",
      "outputs": [
        {
          "internalType": "address",
          "name": "",
          "type": "address"
        }
      ],
      "stateMutability": "view",
      "type": "function"
    },
    {
      "inputs": [
        {
          "internalType": "uint256",
          "name": "coverageAmount",
          "type": "uint256"
        }
      ],
      "name": "buyInsurance",
      "outputs": [],
      "stateMutability": "payable",
      "type": "function"
    },
    {
      "inputs": [
        {
          "internalType": "address",
          "name": "farmer",
          "type": "address"
        },
        {
          "internalType": "uint256",
          "name": "coverageAmount",
          "type": "uint256"
        }
      ],
      "name": "calculatePremium",
      "outputs": [
        {
          "internalType": "uint256",
          "name": "",
          "type": "uint256"
        }
      ],
      "stateMutability": "view",
      "type": "function"
    },
    {
      "inputs": [
        {
          "internalType": "address",
          "name": "farmer",
          "type": "address"
        }
      ],
      "name": "canClaim",
      "outputs": [
        {
          "internalType": "bool",
          "name": "",
          "type": "bool"
        }
      ],
      "stateMutability": "view",
      "type": "function"
    },
    {
      "inputs": [],
      "name": "getContractBalance",
      "outputs": [
        {
          "internalType": "uint256",
          "name": "",
          "type": "uint256"
        }
      ],
      "stateMutability": "view",
      "type": "function"
    },
    {
      "inputs": [
        {
          "internalType": "address",
          "name": "farmer",
          "type": "address"
        },
        {
          "internalType": "string",
          "name": "droughtRisk",
          "type": "string"
        }
      ],
      "name": "getPayoutAmount",
      "outputs": [
        {
          "internalType": "uint256",
          "name": "",
          "type": "uint256"
        }
      ],
      "stateMutability": "view",
      "type": "function"
    },
    {
      "inputs": [
        {
          "internalType": "address",
          "name": "farmer",
          "type": "address"
        }
      ],
      "name": "getPolicy",
      "outputs": [
        {
          "internalType": "uint256",
          "name": "premiumPaid",
          "type": "uint256"
        },
        {
          "internalType": "uint256",
          "name": "coverageAmount",
          "type": "uint256"
        },
        {
          "internalType": "uint256",
          "name": "startDate",
          "type": "uint256"
        },
        {
          "internalType": "uint256",
          "name": "endDate",
          "type": "uint256"
        },
        {
          "internalType": "bool",
          "name": "claimedThisSeason",
          "type": "bool"
        },
        {
          "internalType": "bool",
          "name": "active",
          "type": "bool"
        }
      ],
      "stateMutability": "view",
      "type": "function"
    },
    {
      "inputs": [],
      "name": "owner",
      "outputs": [
        {
          "internalType": "address",
          "name": "",
          "type": "address"
        }
      ],
      "stateMutability": "view",
      "type": "function"
    },
    {
      "inputs": [
        {
          "internalType": "address",
          "name": "",
          "type": "address"
        }
      ],
      "name": "policies",
      "outputs": [
        {
          "internalType": "uint256",
          "name": "premiumPaid",
          "type": "uint256"
        },
        {
          "internalType": "uint256",
          "name": "coverageAmount",
          "type": "uint256"
        },
        {
          "internalType": "uint256",
          "name": "startDate",
          "type": "uint256"
        },
        {
          "internalType": "uint256",
          "name": "endDate",
          "type": "uint256"
        },
        {
          "internalType": "bool",
          "name": "claimedThisSeason",
          "type": "bool"
        },
        {
          "internalType": "bool",
          "name": "active",
          "type": "bool"
        }
      ],
      "stateMutability": "view",
      "type": "function"
    },
    {
      "inputs": [
        {
          "internalType": "address",
          "name": "farmer",
          "type": "address"
        },
        {
          "internalType": "uint256",
          "name": "ndviScore",
          "type": "uint256"
        },
        {
          "internalType": "string",
          "name": "vegetationHealth",
          "type": "string"
        },
        {
          "internalType": "string",
          "name": "droughtRisk",
          "type": "string"
        }
      ],
      "name": "processInsuranceClaim",
      "outputs": [],
      "stateMutability": "nonpayable",
      "type": "function"
    },
    {
      "inputs": [],
      "name": "renewInsurance",
      "outputs": [],
      "stateMutability": "payable",
      "type": "function"
    },
    {
      "inputs": [
        {
          "internalType": "address",
          "name": "",
          "type": "address"
        }
      ],
      "name": "riskScores",
      "outputs": [
        {
          "internalType": "uint256",
          "name": "",
          "type": "uint256"
        }
      ],
      "stateMutability": "view",
      "type": "function"
    },
    {
      "inputs": [
        {
          "internalType": "address",
          "name": "newBackend",
          "type": "address"
        }
      ],
      "name": "setBackend",
      "outputs": [],
      "stateMutability": "nonpayable",
      "type": "function"
    },
    {
      "inputs": [
        {
          "internalType": "address",
          "name": "farmer",
          "type": "address"
        },
        {
          "internalType": "uint256",
          "name": "riskScore",
          "type": "uint256"
        }
      ],
      "name": "setRiskScore",
      "outputs": [],
      "stateMutability": "nonpayable",
      "type": "function"
    },
    {
      "inputs": [
        {
          "internalType": "uint256",
          "name": "amount",
          "type": "uint256"
        }
      ],
      "name": "withdrawPremiums",
      "outputs": [],
      "stateMutability": "nonpayable",
      "type": "function"
    },
    {
      "stateMutability": "payable",
      "type": "receive"
    }
  ],
  "bytecode": "0x608060405234801561001057600080fd5b5060405161139138038061139183398101604081905261002f91610062565b60008054336001600160a01b031991821617909155600180549091166001600160a01b0392909216919091179055610092565b60006020828403121561007457600080fd5b81516001600160a01b038116811461008b57600080fd5b9392505050565b6112f0806100a16000396000f3fe6080604052600436106101185760003560e01c80638da5cb5b116100a0578063bac7c31811610064578063bac7c318146102bf578063bf3506c1146103af578063d0961386146103df578063da7fc24f146103ff578063dc185e351461041f57600080fd5b80638da5cb5b146103345780639b9cde0b146103545780639ce534d114610374578063a86a658c14610394578063b9424abf146103a757600080fd5b80633791dc6a116100e75780633791dc6a1461022d5780634129ecec146102bf5780634e8d9c4d146102d45780635e5b8752146102f45780636f9fb98a1461032157600080fd5b8063099e41331461012457806320e98698146101615780632c5bd6a9146101e8578063310f80591461020b57600080fd5b3661011f57005b600080fd5b34801561013057600080fd5b50600154610144906001600160a01b031681565b6040516001600160a01b0390911681526020015b60405180910390f35b34801561016d57600080fd5b506101b761017c366004610fb0565b600260208190526000918252604090912080546001820154928201546003830154600490930154919392909160ff8082169161010090041686565b60408051968752602087019590955293850192909252606084015215156080830152151560a082015260c001610158565b3480156101f457600080fd5b506101fd603281565b604051908152602001610158565b34801561021757600080fd5b5061022b610226366004610fcb565b610436565b005b34801561023957600080fd5b506101b7610248366004610fb0565b6001600160a01b0316600090815260026020818152604092839020835160c081018552815480825260018301549382018490529382015494810185905260038201546060820181905260049092015460ff80821615156080840181905261010090920416151560a090920182905293959294939192565b3480156102cb57600080fd5b506101fd606481565b3480156102e057600080fd5b5061022b6102ef366004610ff5565b61052a565b34801561030057600080fd5b506101fd61030f366004610fb0565b60036020526000908152604090205481565b34801561032d57600080fd5b50476101fd565b34801561034057600080fd5b50600054610144906001600160a01b031681565b34801561036057600080fd5b5061022b61036f3660046110b1565b6105e1565b34801561038057600080fd5b506101fd61038f36600461112f565b610956565b61022b6103a2366004610ff5565b610a9a565b61022b610c8c565b3480156103bb57600080fd5b506103cf6103ca366004610fb0565b610e13565b6040519015158152602001610158565b3480156103eb57600080fd5b506101fd6103fa366004610fcb565b610e9f565b34801561040b57600080fd5b5061022b61041a366004610fb0565b610ef2565b34801561042b57600080fd5b506101fd6276a70081565b6000546001600160a01b031633146104695760405162461bcd60e51b81526004016104609061117d565b60405180910390fd5b6050811015801561047b575060968111155b6104d15760405162461bcd60e51b815260206004820152602160248201527f5269736b2073636f7265206d757374206265206265747765656e2038302d31356044820152600360fc1b6064820152608401610460565b6001600160a01b03821660008181526003602052604090819020839055517f989734652020b9f7aa8a99ab7dc7855f58e3801fa39bd25dc5d83995cbd2464c9061051e9084815260200190565b60405180910390a25050565b6000546001600160a01b031633146105545760405162461bcd60e51b81526004016104609061117d565b804710156105a45760405162461bcd60e51b815260206004820152601d60248201527f496e73756666696369656e7420636f6e74726163742062616c616e63650000006044820152606401610460565b600080546040516001600160a01b039091169183156108fc02918491818181858888f193505050501580156105dd573d6000803e3d6000fd5b5050565b6001546001600160a01b031633146106335760405162461bcd60e51b815260206004820152601560248201527413db9b1e48189858dad95b990818d85b8818d85b1b605a1b6044820152606401610460565b6001600160a01b03841660009081526002602052604090206004810154610100900460ff1661069a5760405162461bcd60e51b81526020600482015260136024820152724e6f2061637469766520696e737572616e636560681b6044820152606401610460565b80600301544211156106e25760405162461bcd60e51b8152602060048201526011602482015270125b9cdd5c985b98d948195e1c1a5c9959607a1b6044820152606401610460565b600481015460ff16156107375760405162461bcd60e51b815260206004820152601b60248201527f416c726561647920636c61696d6564207468697320736561736f6e00000000006044820152606401610460565b60006014851080156107965750604051633837b7b960e11b6020820152602401604051602081830303815290604052805190602001208460405160200161077e91906111ce565b60405160208183030381529060405280519060200120145b9050801561094e576000836040516020016107b191906111ce565b60405160208183030381529060405280519060200120905060006040516020016107e590630d0d2ced60e31b815260040190565b604051602081830303815290604052805190602001209050600060405160200161081b906573657665726560d01b815260060190565b60408051601f19818403018152828252805160209182012090830190915260008083529092509083850361088c5760646032886001015461085c9190611200565b6108669190611217565b9150604051806040016040528060048152602001630d0d2ced60e31b81525090506108b8565b8285036108b8575050600185015460408051808201909152600681526573657665726560d01b60208201525b81156109485760048701805460ff191660011790556040516001600160a01b038c169083156108fc029084906000818181858888f19350505050158015610903573d6000803e3d6000fd5b508a6001600160a01b03167f671d50b3f4408fdf1cab4d10dc0707238c1a86ced2c08f5513d001f803c2e39f838360405161093f929190611239565b60405180910390a25b50505050505b505050505050565b6001600160a01b0382166000908152600260208181526040808420815160c081018352815481526001820154818501529381015484830152600381015460608501526004015460ff8082161515608086015261010090910416151560a08401525183916109c5918691016111ce565b60405160208183030381529060405280519060200120905060006040516020016109f990630d0d2ced60e31b815260040190565b6040516020818303038152906040528051906020012090506000604051602001610a2f906573657665726560d01b815260060190565b604051602081830303815290604052805190602001209050818303610a7657606460328560200151610a619190611200565b610a6b9190611217565b945050505050610a94565b808303610a8b57505050602001519050610a94565b60009450505050505b92915050565b33600090815260026020526040902060040154610100900460ff1615610b025760405162461bcd60e51b815260206004820152601d60248201527f416c726561647920686176652061637469766520696e737572616e63650000006044820152606401610460565b60008111610b525760405162461bcd60e51b815260206004820181905260248201527f436f76657261676520616d6f756e74206d75737420626520706f7369746976656044820152606401610460565b6000610b5e3383610e9f565b9050803414610baa5760405162461bcd60e51b8152602060048201526018602482015277125b98dbdc9c9958dd081c1c995b5a5d5b48185b5bdd5b9d60421b6044820152606401610460565b426000610bba6276a700836112a7565b6040805160c08101825285815260208082018881528284018781526060808501878152600060808701818152600160a08901818152338085526002808b52948c90209a518b559751918a0191909155945191880191909155905160038701555160049095018054925115156101000261ff00199615159690961661ffff1990931692909217949094179055835188815291820189905292810184905292935090917f7000580a6e3747e318650b055e5e30c38af1f23e69d9baf2c3bbc5fa99398062910160405180910390a250505050565b3360009081526002602052604090206004810154610100900460ff16610cea5760405162461bcd60e51b81526020600482015260136024820152724e6f2061637469766520696e737572616e636560681b6044820152606401610460565b80600301544211610d3d5760405162461bcd60e51b815260206004820152601960248201527f496e737572616e6365206e6f74206578706972656420796574000000000000006044820152606401610460565b6000610d4d338360010154610e9f565b9050803414610d995760405162461bcd60e51b8152602060048201526018602482015277125b98dbdc9c9958dd081c1c995b5a5d5b48185b5bdd5b9d60421b6044820152606401610460565b80826000016000828254610dad91906112a7565b925050819055506276a700826003016000828254610dcb91906112a7565b909155505060048201805460ff19169055600382015460405190815233907fa60116481b2ef3927554c1dc222bfdf752484af125536ae16937b0ec4e81cf7e9060200161051e565b6001600160a01b0381166000908152600260208181526040808420815160c0810183528154815260018201549381019390935292830154908201526003820154606082015260049091015460ff808216151560808401526101009091041615801560a0830181905290610e8a575080606001514211155b8015610e9857508060800151155b9392505050565b6001600160a01b038216600090815260036020526040812054808203610ec3575060645b6000620f424082610ed5606487611200565b610edf9190611200565b610ee99190611217565b95945050505050565b6000546001600160a01b03163314610f1c5760405162461bcd60e51b81526004016104609061117d565b6001600160a01b038116610f725760405162461bcd60e51b815260206004820152601760248201527f496e76616c6964206261636b656e6420616464726573730000000000000000006044820152606401610460565b600180546001600160a01b0319166001600160a01b0392909216919091179055565b80356001600160a01b0381168114610fab57600080fd5b919050565b600060208284031215610fc257600080fd5b610e9882610f94565b60008060408385031215610fde57600080fd5b610fe783610f94565b946020939093013593505050565b60006020828403121561100757600080fd5b5035919050565b634e487b7160e01b600052604160045260246000fd5b600082601f83011261103557600080fd5b813567ffffffffffffffff808211156110505761105061100e565b604051601f8301601f19908116603f011681019082821181831017156110785761107861100e565b8160405283815286602085880101111561109157600080fd5b836020870160208301376000602085830101528094505050505092915050565b600080600080608085870312156110c757600080fd5b6110d085610f94565b935060208501359250604085013567ffffffffffffffff808211156110f457600080fd5b61110088838901611024565b9350606087013591508082111561111657600080fd5b5061112387828801611024565b91505092959194509250565b6000806040838503121561114257600080fd5b61114b83610f94565b9150602083013567ffffffffffffffff81111561116757600080fd5b61117385828601611024565b9150509250929050565b60208082526013908201527213db9b1e481bdddb995c8818d85b8818d85b1b606a1b604082015260600190565b60005b838110156111c55781810151838201526020016111ad565b50506000910152565b600082516111e08184602087016111aa565b9190910192915050565b634e487b7160e01b600052601160045260246000fd5b8082028115828204841417610a9457610a946111ea565b60008261123457634e487b7160e01b600052601260045260246000fd5b500490565b82815260606020820152601760608201527f64726f756768745f706f6f725f76656765746174696f6e000000000000000000608082015260a06040820152600082518060a08401526112928160c08501602087016111aa565b601f01601f19169190910160c0019392505050565b80820180821115610a9457610a946111ea56fea2646970667358221220ad3b410dbd401bb9fc77b98fdf4258429af4155dd04361a9d85d9fc90a133c7864736f6c63430008130033",
  "linkReferences": {},
  "deployedLinkReferences": {}
}