{
  "_format": "hh-sol-artifact-1",
  "contractName": "PestReward",
  "sourceName": "contracts/PestReward.sol",
  "abi": [
    {
      "inputs": [
        {
          "internalType": "address",
          "name": "_asaiTokenAddress",
          "type": "address"
        },
        {
          "internalType": "address",
          "name": "_backend",
          "type": "address"
        }
      ],
      "stateMutability": "nonpayable",
      "type": "constructor"
    },
    {
      "anonymous": false,
      "inputs": [
        {
          "indexed": true,
          "internalType": "address",
          "name": "newBackend",
          "type": "address"
        }
      ],
      "name": "BackendUpdated",
      "type": "event"
    },
    {
      "anonymous": false,
      "inputs": [
        {
          "indexed": true,
          "internalType": "address",
          "name": "newOwner",
          "type": "address"
        }
      ],
      "name": "OwnershipTransferred",
      "type": "event"
    },
    {
      "anonymous": false,
      "inputs": [
        {
          "indexed": true,
          "internalType": "address",
          "name": "farmer",
          "type": "address"
        },
        {
          "indexed": false,
          "internalType": "string",
          "name": "pestType",
          "type": "string"
        },
        {
          "indexed": false,
          "internalType": "uint256",
          "name": "confidence",
          "type": "uint256"
        },
        {
          "indexed": false,
          "internalType": "uint256",
          "name": "reward",
          "type": "uint256"
        }
      ],
      "name": "PestDetected",
      "type": "event"
    },
    {
      "anonymous": false,
      "inputs": [
        {
          "indexed": true,
          "internalType": "address",
          "name": "farmer",
          "type": "address"
        },
        {
          "indexed": false,
          "internalType": "uint256",
          "name": "amount",
          "type": "uint256"
        }
      ],
      "name": "RewardClaimed",
      "type": "event"
    },
    {
      "inputs": [],
      "name": "asaiToken",
      "outputs": [
        {
          "internalType": "contract ASAI",
          "name": "",
          "type": "address"
        }
      ],
      "stateMutability": "view",
      "type": "function"
    },
    {
      "inputs": [],
      "name": "backend",
      "outputs": [
        {
          "internalType": "address",
          "name": "",
          "type": "address"
        }
      ],
      "stateMutability": "view",
      "type": "function"
    },
    {
      "inputs": [],
      "name": "claimRewards",
      "outputs": [],
      "stateMutability": "nonpayable",
      "type": "function"
    },
    {
      "inputs": [
        {
          "internalType": "address",
          "name": "",
          "type": "address"
        }
      ],
      "name": "farmerRewards",
      "outputs": [
        {
          "internalType": "uint256",
          "name": "",
          "type": "uint256"
        }
      ],
      "stateMutability": "view",
      "type": "function"
    },
    {
      "inputs": [],
      "name": "getContractInfo",
      "outputs": [
        {
          "internalType": "address",
          "name": "tokenAddress",
          "type": "address"
        },
        {
          "internalType": "address",
          "name": "contractOwner",
          "type": "address"
        },
        {
          "internalType": "address",
          "name": "currentBackend",
          "type": "address"
        },
        {
          "internalType": "uint256",
          "name": "totalFarmersWithRewards",
          "type": "uint256"
        }
      ],
      "stateMutability": "view",
      "type": "function"
    },
    {
      "inputs": [
        {
          "internalType": "address",
          "name": "farmer",
          "type": "address"
        }
      ],
      "name": "getFarmerReward",
      "outputs": [
        {
          "internalType": "uint256",
          "name": "",
          "type": "uint256"
        }
      ],
      "stateMutability": "view",
      "type": "function"
    },
    {
      "inputs": [
        {
          "internalType": "string",
          "name": "predictionId",
          "type": "string"
        }
      ],
      "name": "isPredictionProcessed",
      "outputs": [
        {
          "internalType": "bool",
          "name": "",
          "type": "bool"
        }
      ],
      "stateMutability": "view",
      "type": "function"
    },
    {
      "inputs": [],
      "name": "owner",
      "outputs": [
        {
          "internalType": "address",
          "name": "",
          "type": "address"
        }
      ],
      "stateMutability": "view",
      "type": "function"
    },
    {
      "inputs": [
        {
          "internalType": "string",
          "name": "",
          "type": "string"
        }
      ],
      "name": "processedPredictions",
      "outputs": [
        {
          "internalType": "bool",
          "name": "",
          "type": "bool"
        }
      ],
      "stateMutability": "view",
      "type": "function"
    },
    {
      "inputs": [
        {
          "internalType": "address",
          "name": "farmer",
          "type": "address"
        },
        {
          "internalType": "string",
          "name": "predictionId",
          "type": "string"
        },
        {
          "internalType": "string",
          "name": "pestType",
          "type": "string"
        },
        {
          "internalType": "uint256",
          "name": "confidence",
          "type": "uint256"
        }
      ],
      "name": "recordPestDetection",
      "outputs": [],
      "stateMutability": "nonpayable",
      "type": "function"
    },
    {
      "inputs": [
        {
          "internalType": "address",
          "name": "tokenAddress",
          "type": "address"
        },
        {
          "internalType": "uint256",
          "name": "amount",
          "type": "uint256"
        }
      ],
      "name": "rescueTokens",
      "outputs": [],
      "stateMutability": "nonpayable",
      "type": "function"
    },
    {
      "inputs": [
        {
          "internalType": "address",
          "name": "_backend",
          "type": "address"
        }
      ],
      "name": "setBackend",
      "outputs": [],
      "stateMutability": "nonpayable",
      "type": "function"
    },
    {
      "inputs": [
        {
          "internalType": "address",
          "name": "newOwner",
          "type": "address"
        }
      ],
      "name": "transferOwnership",
      "outputs": [],
      "stateMutability": "nonpayable",
      "type": "function"
    }
  ],
  "bytecode": "0x608060405234801561001057600080fd5b50604051610b1c380380610b1c83398101604081905261002f91610086565b600080546001600160a01b039384166001600160a01b03199182161790915560018054821633179055600280549290931691161790556100b9565b80516001600160a01b038116811461008157600080fd5b919050565b6000806040838503121561009957600080fd5b6100a28361006a565b91506100b06020840161006a565b90509250929050565b610a54806100c86000396000f3fe608060405234801561001057600080fd5b50600436106100cf5760003560e01c80637cc1f8671161008c578063ac6744be11610066578063ac6744be146101e7578063cc7af2ad14610210578063da7fc24f1461023e578063f2fde38b1461025157600080fd5b80637cc1f867146101755780638da5cb5b146101b1578063a0f4d350146101c457600080fd5b8063099e4133146100d4578063372500ab146101045780633a21bc801461010e57806357376198146101215780637139adba146101345780637b9306d414610162575b600080fd5b6002546100e7906001600160a01b031681565b6040516001600160a01b0390911681526020015b60405180910390f35b61010c610264565b005b6000546100e7906001600160a01b031681565b61010c61012f36600461077e565b610369565b6101546101423660046107a8565b60036020526000908152604090205481565b6040519081526020016100fb565b61010c61017036600461086d565b61040f565b60008054600154600254604080516001600160a01b039485168152928416602084015292169181019190915260608101919091526080016100fb565b6001546100e7906001600160a01b031681565b6101d76101d23660046108e9565b6105af565b60405190151581526020016100fb565b6101546101f53660046107a8565b6001600160a01b031660009081526003602052604090205490565b6101d761021e3660046108e9565b805160208183018101805160048252928201919093012091525460ff1681565b61010c61024c3660046107a8565b6105da565b61010c61025f3660046107a8565b6106a4565b33600090815260036020526040902054806102bc5760405162461bcd60e51b81526020600482015260136024820152724e6f207265776172647320746f20636c61696d60681b60448201526064015b60405180910390fd5b33600081815260036020526040808220829055905490516340c10f1960e01b81526004810192909252602482018390526001600160a01b0316906340c10f1990604401600060405180830381600087803b15801561031957600080fd5b505af115801561032d573d6000803e3d6000fd5b50506040518381523392507f106f923f993c2149d49b4255ff723acafa1f2d94393f561d3eda32ae348f7241915060200160405180910390a250565b6001546001600160a01b031633146103935760405162461bcd60e51b81526004016102b390610926565b60015460405163a9059cbb60e01b81526001600160a01b039182166004820152602481018390529083169063a9059cbb906044016020604051808303816000875af11580156103e6573d6000803e3d6000fd5b505050506040513d601f19601f8201168201806040525081019061040a9190610953565b505050565b6002546001600160a01b031633146104615760405162461bcd60e51b815260206004820152601560248201527413db9b1e48189858dad95b990818d85b8818d85b1b605a1b60448201526064016102b3565b6004836040516104719190610999565b9081526040519081900360200190205460ff16156104d15760405162461bcd60e51b815260206004820152601c60248201527f50726564696374696f6e20616c72656164792070726f6365737365640000000060448201526064016102b3565b60016004846040516104e39190610999565b908152604051908190036020019020805491151560ff1990921691909117905560006050821061051957506402540be400610534565b6032821061052d575064012a05f200610534565b5063773594005b6001600160a01b0385166000908152600360205260408120805483929061055c9084906109b5565b92505081905550846001600160a01b03167fcdd08dfae1d37aa0972b388f76eea2c5fc81a5187c1cd3bd76eb45c5e2f57aaa8484846040516105a0939291906109dc565b60405180910390a25050505050565b60006004826040516105c19190610999565b9081526040519081900360200190205460ff1692915050565b6001546001600160a01b031633146106045760405162461bcd60e51b81526004016102b390610926565b6001600160a01b03811661065a5760405162461bcd60e51b815260206004820152601760248201527f496e76616c6964206261636b656e64206164647265737300000000000000000060448201526064016102b3565b600280546001600160a01b0319166001600160a01b0383169081179091556040517fbdf357ed9238051c5244e343397ad9019506dad91dfaf6bd47d05f5d14ba529790600090a250565b6001546001600160a01b031633146106ce5760405162461bcd60e51b81526004016102b390610926565b6001600160a01b0381166107185760405162461bcd60e51b815260206004820152601160248201527024b73b30b634b2103732bb9037bbb732b960791b60448201526064016102b3565b600180546001600160a01b0319166001600160a01b0383169081179091556040517f04dba622d284ed0014ee4b9a6a68386be1a4c08a4913ae272de89199cc68616390600090a250565b80356001600160a01b038116811461077957600080fd5b919050565b6000806040838503121561079157600080fd5b61079a83610762565b946020939093013593505050565b6000602082840312156107ba57600080fd5b6107c382610762565b9392505050565b634e487b7160e01b600052604160045260246000fd5b600082601f8301126107f157600080fd5b813567ffffffffffffffff8082111561080c5761080c6107ca565b604051601f8301601f19908116603f01168101908282118183101715610834576108346107ca565b8160405283815286602085880101111561084d57600080fd5b836020870160208301376000602085830101528094505050505092915050565b6000806000806080858703121561088357600080fd5b61088c85610762565b9350602085013567ffffffffffffffff808211156108a957600080fd5b6108b5888389016107e0565b945060408701359150808211156108cb57600080fd5b506108d8878288016107e0565b949793965093946060013593505050565b6000602082840312156108fb57600080fd5b813567ffffffffffffffff81111561091257600080fd5b61091e848285016107e0565b949350505050565b60208082526013908201527213db9b1e481bdddb995c8818d85b8818d85b1b606a1b604082015260600190565b60006020828403121561096557600080fd5b815180151581146107c357600080fd5b60005b83811015610990578181015183820152602001610978565b50506000910152565b600082516109ab818460208701610975565b9190910192915050565b808201808211156109d657634e487b7160e01b600052601160045260246000fd5b92915050565b60608152600084518060608401526109fb816080850160208901610975565b60208301949094525060408101919091526080601f909201601f1916010191905056fea26469706673582212201a5160fcbd9ce2231abb4ea7e086ba82535eb6b15d1c437ae156a6cb415b2b2e64736f6c63430008130033",
  "linkReferences": {},
  "deployedLinkReferences": {}
}